{
  "_format": "hh-sol-artifact-1",
  "contractName": "TokenFarm",
  "sourceName": "contracts/GamerOneFarm.sol",
  "abi": [
    {
      "inputs": [
        {
          "internalType": "contract IERC20",
          "name": "_daiToken",
          "type": "address"
        },
        {
          "internalType": "contract GamerOneToken",
          "name": "_gamerOneToken",
          "type": "address"
        }
      ],
      "stateMutability": "nonpayable",
      "type": "constructor"
    },
    {
      "anonymous": false,
      "inputs": [
        {
          "indexed": true,
          "internalType": "address",
          "name": "from",
          "type": "address"
        },
        {
          "indexed": false,
          "internalType": "uint256",
          "name": "amount",
          "type": "uint256"
        }
      ],
      "name": "Stake",
      "type": "event"
    },
    {
      "anonymous": false,
      "inputs": [
        {
          "indexed": true,
          "internalType": "address",
          "name": "from",
          "type": "address"
        },
        {
          "indexed": false,
          "internalType": "uint256",
          "name": "amount",
          "type": "uint256"
        }
      ],
      "name": "Unstake",
      "type": "event"
    },
    {
      "anonymous": false,
      "inputs": [
        {
          "indexed": true,
          "internalType": "address",
          "name": "to",
          "type": "address"
        },
        {
          "indexed": false,
          "internalType": "uint256",
          "name": "amount",
          "type": "uint256"
        }
      ],
      "name": "YieldWithdraw",
      "type": "event"
    },
    {
      "inputs": [
        {
          "internalType": "address",
          "name": "user",
          "type": "address"
        }
      ],
      "name": "calculateYieldTime",
      "outputs": [
        {
          "internalType": "uint256",
          "name": "",
          "type": "uint256"
        }
      ],
      "stateMutability": "view",
      "type": "function"
    },
    {
      "inputs": [
        {
          "internalType": "address",
          "name": "user",
          "type": "address"
        }
      ],
      "name": "calculateYieldTotal",
      "outputs": [
        {
          "internalType": "uint256",
          "name": "",
          "type": "uint256"
        }
      ],
      "stateMutability": "view",
      "type": "function"
    },
    {
      "inputs": [],
      "name": "daiToken",
      "outputs": [
        {
          "internalType": "contract IERC20",
          "name": "",
          "type": "address"
        }
      ],
      "stateMutability": "view",
      "type": "function"
    },
    {
      "inputs": [
        {
          "internalType": "address",
          "name": "",
          "type": "address"
        }
      ],
      "name": "gamerOneBalance",
      "outputs": [
        {
          "internalType": "uint256",
          "name": "",
          "type": "uint256"
        }
      ],
      "stateMutability": "view",
      "type": "function"
    },
    {
      "inputs": [],
      "name": "gamerOneToken",
      "outputs": [
        {
          "internalType": "contract GamerOneToken",
          "name": "",
          "type": "address"
        }
      ],
      "stateMutability": "view",
      "type": "function"
    },
    {
      "inputs": [
        {
          "internalType": "address",
          "name": "",
          "type": "address"
        }
      ],
      "name": "isStaking",
      "outputs": [
        {
          "internalType": "bool",
          "name": "",
          "type": "bool"
        }
      ],
      "stateMutability": "view",
      "type": "function"
    },
    {
      "inputs": [],
      "name": "name",
      "outputs": [
        {
          "internalType": "string",
          "name": "",
          "type": "string"
        }
      ],
      "stateMutability": "view",
      "type": "function"
    },
    {
      "inputs": [
        {
          "internalType": "uint256",
          "name": "amount",
          "type": "uint256"
        }
      ],
      "name": "stake",
      "outputs": [],
      "stateMutability": "nonpayable",
      "type": "function"
    },
    {
      "inputs": [
        {
          "internalType": "address",
          "name": "",
          "type": "address"
        }
      ],
      "name": "stakingBalance",
      "outputs": [
        {
          "internalType": "uint256",
          "name": "",
          "type": "uint256"
        }
      ],
      "stateMutability": "view",
      "type": "function"
    },
    {
      "inputs": [
        {
          "internalType": "address",
          "name": "",
          "type": "address"
        }
      ],
      "name": "startTime",
      "outputs": [
        {
          "internalType": "uint256",
          "name": "",
          "type": "uint256"
        }
      ],
      "stateMutability": "view",
      "type": "function"
    },
    {
      "inputs": [
        {
          "internalType": "uint256",
          "name": "amount",
          "type": "uint256"
        }
      ],
      "name": "unstake",
      "outputs": [],
      "stateMutability": "nonpayable",
      "type": "function"
    },
    {
      "inputs": [],
      "name": "withdrawYield",
      "outputs": [],
      "stateMutability": "nonpayable",
      "type": "function"
    }
  ],
  "bytecode": "0x60806040526040518060400160405280600981526020017f546f6b656e4661726d000000000000000000000000000000000000000000000081525060049080519060200190620000519291906200010f565b503480156200005f57600080fd5b506040516200190138038062001901833981810160405281019062000085919062000282565b81600560006101000a81548173ffffffffffffffffffffffffffffffffffffffff021916908373ffffffffffffffffffffffffffffffffffffffff16021790555080600660006101000a81548173ffffffffffffffffffffffffffffffffffffffff021916908373ffffffffffffffffffffffffffffffffffffffff16021790555050506200032e565b8280546200011d90620002f8565b90600052602060002090601f0160209004810192826200014157600085556200018d565b82601f106200015c57805160ff19168380011785556200018d565b828001600101855582156200018d579182015b828111156200018c5782518255916020019190600101906200016f565b5b5090506200019c9190620001a0565b5090565b5b80821115620001bb576000816000905550600101620001a1565b5090565b600080fd5b600073ffffffffffffffffffffffffffffffffffffffff82169050919050565b6000620001f182620001c4565b9050919050565b60006200020582620001e4565b9050919050565b6200021781620001f8565b81146200022357600080fd5b50565b60008151905062000237816200020c565b92915050565b60006200024a82620001e4565b9050919050565b6200025c816200023d565b81146200026857600080fd5b50565b6000815190506200027c8162000251565b92915050565b600080604083850312156200029c576200029b620001bf565b5b6000620002ac8582860162000226565b9250506020620002bf858286016200026b565b9150509250929050565b7f4e487b7100000000000000000000000000000000000000000000000000000000600052602260045260246000fd5b600060028204905060018216806200031157607f821691505b60208210811415620003285762000327620002c9565b5b50919050565b6115c3806200033e6000396000f3fe608060405234801561001057600080fd5b50600436106100b45760003560e01c8063980d611611610071578063980d6116146101b3578063a694fc3a146101e3578063be22f546146101ff578063e507a8a41461021d578063ed688ba214610227578063f481154d14610245576100b4565b806306872661146100b957806306fdde03146100e95780632e17de781461010757806345bc78ab146101235780636e1dc66e146101535780636f49712b14610183575b600080fd5b6100d360048036038101906100ce9190610eef565b610275565b6040516100e09190610f35565b60405180910390f35b6100f161031b565b6040516100fe9190610fe9565b60405180910390f35b610121600480360381019061011c9190611037565b6103a9565b005b61013d60048036038101906101389190610eef565b610731565b60405161014a9190610f35565b60405180910390f35b61016d60048036038101906101689190610eef565b610749565b60405161017a9190610f35565b60405180910390f35b61019d60048036038101906101989190610eef565b610761565b6040516101aa919061107f565b60405180910390f35b6101cd60048036038101906101c89190610eef565b610781565b6040516101da9190610f35565b60405180910390f35b6101fd60048036038101906101f89190611037565b6107e0565b005b610207610b8a565b60405161021491906110f9565b60405180910390f35b610225610bb0565b005b61022f610e4e565b60405161023c9190611135565b60405180910390f35b61025f600480360381019061025a9190610eef565b610e74565b60405161026c9190610f35565b60405180910390f35b600080670de0b6b3a764000061028a84610781565b610294919061117f565b90506000620151809050600081836102ac9190611208565b90506000670de0b6b3a7640000826000808973ffffffffffffffffffffffffffffffffffffffff1673ffffffffffffffffffffffffffffffffffffffff16815260200190815260200160002054610303919061117f565b61030d9190611208565b905080945050505050919050565b6004805461032890611268565b80601f016020809104026020016040519081016040528092919081815260200182805461035490611268565b80156103a15780601f10610376576101008083540402835291602001916103a1565b820191906000526020600020905b81548152906001019060200180831161038457829003601f168201915b505050505081565b600180156103f55750806000803373ffffffffffffffffffffffffffffffffffffffff1673ffffffffffffffffffffffffffffffffffffffff1681526020019081526020016000205410155b600160003373ffffffffffffffffffffffffffffffffffffffff1673ffffffffffffffffffffffffffffffffffffffff16815260200190815260200160002060006101000a81548160ff0219169083151502179055610489576040517f08c379a0000000000000000000000000000000000000000000000000000000008152600401610480906112e6565b60405180910390fd5b600061049433610275565b905042600260003373ffffffffffffffffffffffffffffffffffffffff1673ffffffffffffffffffffffffffffffffffffffff16815260200190815260200160002081905550600082905060009250806000803373ffffffffffffffffffffffffffffffffffffffff1673ffffffffffffffffffffffffffffffffffffffff16815260200190815260200160002060008282546105319190611306565b92505081905550600560009054906101000a900473ffffffffffffffffffffffffffffffffffffffff1673ffffffffffffffffffffffffffffffffffffffff1663a9059cbb33836040518363ffffffff1660e01b8152600401610595929190611349565b602060405180830381600087803b1580156105af57600080fd5b505af11580156105c3573d6000803e3d6000fd5b505050506040513d601f19601f820116820180604052508101906105e7919061139e565b5081600360003373ffffffffffffffffffffffffffffffffffffffff1673ffffffffffffffffffffffffffffffffffffffff168152602001908152602001600020600082825461063791906113cb565b9250508190555060008060003373ffffffffffffffffffffffffffffffffffffffff1673ffffffffffffffffffffffffffffffffffffffff1681526020019081526020016000205414156106de576000600160003373ffffffffffffffffffffffffffffffffffffffff1673ffffffffffffffffffffffffffffffffffffffff16815260200190815260200160002060006101000a81548160ff0219169083151502179055505b3373ffffffffffffffffffffffffffffffffffffffff167f85082129d87b2fe11527cb1b3b7a520aeb5aa6913f88a3d8757fe40d1db02fdd846040516107249190610f35565b60405180910390a2505050565b60006020528060005260406000206000915090505481565b60026020528060005260406000206000915090505481565b60016020528060005260406000206000915054906101000a900460ff1681565b6000804290506000600260008573ffffffffffffffffffffffffffffffffffffffff1673ffffffffffffffffffffffffffffffffffffffff16815260200190815260200160002054826107d49190611306565b90508092505050919050565b60008111801561089a575080600560009054906101000a900473ffffffffffffffffffffffffffffffffffffffff1673ffffffffffffffffffffffffffffffffffffffff166370a08231336040518263ffffffff1660e01b81526004016108479190611421565b60206040518083038186803b15801561085f57600080fd5b505afa158015610873573d6000803e3d6000fd5b505050506040513d601f19601f820116820180604052508101906108979190611451565b10155b6108d9576040517f08c379a00000000000000000000000000000000000000000000000000000000081526004016108d0906114ca565b60405180910390fd5b60011515600160003373ffffffffffffffffffffffffffffffffffffffff1673ffffffffffffffffffffffffffffffffffffffff16815260200190815260200160002060009054906101000a900460ff161515141561099757600061093d33610275565b905080600360003373ffffffffffffffffffffffffffffffffffffffff1673ffffffffffffffffffffffffffffffffffffffff168152602001908152602001600020600082825461098e91906113cb565b92505081905550505b600560009054906101000a900473ffffffffffffffffffffffffffffffffffffffff1673ffffffffffffffffffffffffffffffffffffffff166323b872dd3330846040518463ffffffff1660e01b81526004016109f6939291906114ea565b602060405180830381600087803b158015610a1057600080fd5b505af1158015610a24573d6000803e3d6000fd5b505050506040513d601f19601f82011682018060405250810190610a48919061139e565b50806000803373ffffffffffffffffffffffffffffffffffffffff1673ffffffffffffffffffffffffffffffffffffffff1681526020019081526020016000206000828254610a9791906113cb565b9250508190555042600260003373ffffffffffffffffffffffffffffffffffffffff1673ffffffffffffffffffffffffffffffffffffffff1681526020019081526020016000208190555060018060003373ffffffffffffffffffffffffffffffffffffffff1673ffffffffffffffffffffffffffffffffffffffff16815260200190815260200160002060006101000a81548160ff0219169083151502179055503373ffffffffffffffffffffffffffffffffffffffff167febedb8b3c678666e7f36970bc8f57abf6d8fa2e828c0da91ea5b75bf68ed101a82604051610b7f9190610f35565b60405180910390a250565b600560009054906101000a900473ffffffffffffffffffffffffffffffffffffffff1681565b6000610bbb33610275565b90506000811180610c0b57506000600360003373ffffffffffffffffffffffffffffffffffffffff1673ffffffffffffffffffffffffffffffffffffffff16815260200190815260200160002054115b610c4a576040517f08c379a0000000000000000000000000000000000000000000000000000000008152600401610c419061156d565b60405180910390fd5b6000600360003373ffffffffffffffffffffffffffffffffffffffff1673ffffffffffffffffffffffffffffffffffffffff1681526020019081526020016000205414610d2a576000600360003373ffffffffffffffffffffffffffffffffffffffff1673ffffffffffffffffffffffffffffffffffffffff1681526020019081526020016000205490506000600360003373ffffffffffffffffffffffffffffffffffffffff1673ffffffffffffffffffffffffffffffffffffffff168152602001908152602001600020819055508082610d2691906113cb565b9150505b42600260003373ffffffffffffffffffffffffffffffffffffffff1673ffffffffffffffffffffffffffffffffffffffff16815260200190815260200160002081905550600660009054906101000a900473ffffffffffffffffffffffffffffffffffffffff1673ffffffffffffffffffffffffffffffffffffffff166340c10f1933836040518363ffffffff1660e01b8152600401610dcb929190611349565b600060405180830381600087803b158015610de557600080fd5b505af1158015610df9573d6000803e3d6000fd5b505050503373ffffffffffffffffffffffffffffffffffffffff167f92044e3943309ee5950e21bc7421d02c1df75f0df33c0d97c1143687b49a4c5782604051610e439190610f35565b60405180910390a250565b600660009054906101000a900473ffffffffffffffffffffffffffffffffffffffff1681565b60036020528060005260406000206000915090505481565b600080fd5b600073ffffffffffffffffffffffffffffffffffffffff82169050919050565b6000610ebc82610e91565b9050919050565b610ecc81610eb1565b8114610ed757600080fd5b50565b600081359050610ee981610ec3565b92915050565b600060208284031215610f0557610f04610e8c565b5b6000610f1384828501610eda565b91505092915050565b6000819050919050565b610f2f81610f1c565b82525050565b6000602082019050610f4a6000830184610f26565b92915050565b600081519050919050565b600082825260208201905092915050565b60005b83811015610f8a578082015181840152602081019050610f6f565b83811115610f99576000848401525b50505050565b6000601f19601f8301169050919050565b6000610fbb82610f50565b610fc58185610f5b565b9350610fd5818560208601610f6c565b610fde81610f9f565b840191505092915050565b600060208201905081810360008301526110038184610fb0565b905092915050565b61101481610f1c565b811461101f57600080fd5b50565b6000813590506110318161100b565b92915050565b60006020828403121561104d5761104c610e8c565b5b600061105b84828501611022565b91505092915050565b60008115159050919050565b61107981611064565b82525050565b60006020820190506110946000830184611070565b92915050565b6000819050919050565b60006110bf6110ba6110b584610e91565b61109a565b610e91565b9050919050565b60006110d1826110a4565b9050919050565b60006110e3826110c6565b9050919050565b6110f3816110d8565b82525050565b600060208201905061110e60008301846110ea565b92915050565b600061111f826110c6565b9050919050565b61112f81611114565b82525050565b600060208201905061114a6000830184611126565b92915050565b7f4e487b7100000000000000000000000000000000000000000000000000000000600052601160045260246000fd5b600061118a82610f1c565b915061119583610f1c565b9250817fffffffffffffffffffffffffffffffffffffffffffffffffffffffffffffffff04831182151516156111ce576111cd611150565b5b828202905092915050565b7f4e487b7100000000000000000000000000000000000000000000000000000000600052601260045260246000fd5b600061121382610f1c565b915061121e83610f1c565b92508261122e5761122d6111d9565b5b828204905092915050565b7f4e487b7100000000000000000000000000000000000000000000000000000000600052602260045260246000fd5b6000600282049050600182168061128057607f821691505b6020821081141561129457611293611239565b5b50919050565b7f4e6f7468696e6720746f20756e7374616b650000000000000000000000000000600082015250565b60006112d0601283610f5b565b91506112db8261129a565b602082019050919050565b600060208201905081810360008301526112ff816112c3565b9050919050565b600061131182610f1c565b915061131c83610f1c565b92508282101561132f5761132e611150565b5b828203905092915050565b61134381610eb1565b82525050565b600060408201905061135e600083018561133a565b61136b6020830184610f26565b9392505050565b61137b81611064565b811461138657600080fd5b50565b60008151905061139881611372565b92915050565b6000602082840312156113b4576113b3610e8c565b5b60006113c284828501611389565b91505092915050565b60006113d682610f1c565b91506113e183610f1c565b9250827fffffffffffffffffffffffffffffffffffffffffffffffffffffffffffffffff0382111561141657611415611150565b5b828201905092915050565b6000602082019050611436600083018461133a565b92915050565b60008151905061144b8161100b565b92915050565b60006020828403121561146757611466610e8c565b5b60006114758482850161143c565b91505092915050565b7f596f752063616e6e6f74207374616b65207a65726f20746f6b656e7300000000600082015250565b60006114b4601c83610f5b565b91506114bf8261147e565b602082019050919050565b600060208201905081810360008301526114e3816114a7565b9050919050565b60006060820190506114ff600083018661133a565b61150c602083018561133a565b6115196040830184610f26565b949350505050565b7f4e6f7468696e6720746f20776974686472617700000000000000000000000000600082015250565b6000611557601383610f5b565b915061156282611521565b602082019050919050565b600060208201905081810360008301526115868161154a565b905091905056fea2646970667358221220f474165681a40d115b2c245a89c2b263666878f5c7ad5f7e330bdc1fc16905e364736f6c63430008090033",
  "linkReferences": {},
  "deployedLinkReferences": {}
}